{
  "contractName": "PropertyPool",
  "abi": [
    {
      "inputs": [],
      "stateMutability": "nonpayable",
      "type": "constructor"
    },
    {
      "anonymous": false,
      "inputs": [
        {
          "indexed": true,
          "internalType": "address",
          "name": "owner",
          "type": "address"
        },
        {
          "indexed": true,
          "internalType": "address",
          "name": "approved",
          "type": "address"
        },
        {
          "indexed": true,
          "internalType": "uint256",
          "name": "tokenId",
          "type": "uint256"
        }
      ],
      "name": "Approval",
      "type": "event"
    },
    {
      "anonymous": false,
      "inputs": [
        {
          "indexed": true,
          "internalType": "address",
          "name": "owner",
          "type": "address"
        },
        {
          "indexed": true,
          "internalType": "address",
          "name": "operator",
          "type": "address"
        },
        {
          "indexed": false,
          "internalType": "bool",
          "name": "approved",
          "type": "bool"
        }
      ],
      "name": "ApprovalForAll",
      "type": "event"
    },
    {
      "anonymous": false,
      "inputs": [
        {
          "indexed": true,
          "internalType": "address",
          "name": "previousOwner",
          "type": "address"
        },
        {
          "indexed": true,
          "internalType": "address",
          "name": "newOwner",
          "type": "address"
        }
      ],
      "name": "OwnershipTransferred",
      "type": "event"
    },
    {
      "anonymous": false,
      "inputs": [
        {
          "indexed": false,
          "internalType": "address",
          "name": "_owner",
          "type": "address"
        },
        {
          "indexed": false,
          "internalType": "uint256",
          "name": "_tokenId",
          "type": "uint256"
        }
      ],
      "name": "PropertyMinted",
      "type": "event"
    },
    {
      "anonymous": false,
      "inputs": [
        {
          "indexed": false,
          "internalType": "address",
          "name": "_from",
          "type": "address"
        },
        {
          "indexed": false,
          "internalType": "address",
          "name": "_to",
          "type": "address"
        },
        {
          "indexed": false,
          "internalType": "uint256",
          "name": "_tokenId",
          "type": "uint256"
        }
      ],
      "name": "PropertyTransfered",
      "type": "event"
    },
    {
      "anonymous": false,
      "inputs": [
        {
          "indexed": true,
          "internalType": "bytes32",
          "name": "role",
          "type": "bytes32"
        },
        {
          "indexed": true,
          "internalType": "bytes32",
          "name": "previousAdminRole",
          "type": "bytes32"
        },
        {
          "indexed": true,
          "internalType": "bytes32",
          "name": "newAdminRole",
          "type": "bytes32"
        }
      ],
      "name": "RoleAdminChanged",
      "type": "event"
    },
    {
      "anonymous": false,
      "inputs": [
        {
          "indexed": true,
          "internalType": "bytes32",
          "name": "role",
          "type": "bytes32"
        },
        {
          "indexed": true,
          "internalType": "address",
          "name": "account",
          "type": "address"
        },
        {
          "indexed": true,
          "internalType": "address",
          "name": "sender",
          "type": "address"
        }
      ],
      "name": "RoleGranted",
      "type": "event"
    },
    {
      "anonymous": false,
      "inputs": [
        {
          "indexed": true,
          "internalType": "bytes32",
          "name": "role",
          "type": "bytes32"
        },
        {
          "indexed": true,
          "internalType": "address",
          "name": "account",
          "type": "address"
        },
        {
          "indexed": true,
          "internalType": "address",
          "name": "sender",
          "type": "address"
        }
      ],
      "name": "RoleRevoked",
      "type": "event"
    },
    {
      "anonymous": false,
      "inputs": [
        {
          "indexed": true,
          "internalType": "address",
          "name": "from",
          "type": "address"
        },
        {
          "indexed": true,
          "internalType": "address",
          "name": "to",
          "type": "address"
        },
        {
          "indexed": true,
          "internalType": "uint256",
          "name": "tokenId",
          "type": "uint256"
        }
      ],
      "name": "Transfer",
      "type": "event"
    },
    {
      "inputs": [],
      "name": "DEFAULT_ADMIN_ROLE",
      "outputs": [
        {
          "internalType": "bytes32",
          "name": "",
          "type": "bytes32"
        }
      ],
      "stateMutability": "view",
      "type": "function",
      "constant": true
    },
    {
      "inputs": [],
      "name": "MINTER_ADMIN_ROLE",
      "outputs": [
        {
          "internalType": "bytes32",
          "name": "",
          "type": "bytes32"
        }
      ],
      "stateMutability": "view",
      "type": "function",
      "constant": true
    },
    {
      "inputs": [],
      "name": "MINTER_ROLE",
      "outputs": [
        {
          "internalType": "bytes32",
          "name": "",
          "type": "bytes32"
        }
      ],
      "stateMutability": "view",
      "type": "function",
      "constant": true
    },
    {
      "inputs": [
        {
          "internalType": "address",
          "name": "to",
          "type": "address"
        },
        {
          "internalType": "uint256",
          "name": "tokenId",
          "type": "uint256"
        }
      ],
      "name": "approve",
      "outputs": [],
      "stateMutability": "nonpayable",
      "type": "function"
    },
    {
      "inputs": [
        {
          "internalType": "address",
          "name": "owner",
          "type": "address"
        }
      ],
      "name": "balanceOf",
      "outputs": [
        {
          "internalType": "uint256",
          "name": "",
          "type": "uint256"
        }
      ],
      "stateMutability": "view",
      "type": "function",
      "constant": true
    },
    {
      "inputs": [],
      "name": "baseURI",
      "outputs": [
        {
          "internalType": "string",
          "name": "",
          "type": "string"
        }
      ],
      "stateMutability": "view",
      "type": "function",
      "constant": true
    },
    {
      "inputs": [
        {
          "internalType": "uint256",
          "name": "tokenId",
          "type": "uint256"
        }
      ],
      "name": "getApproved",
      "outputs": [
        {
          "internalType": "address",
          "name": "",
          "type": "address"
        }
      ],
      "stateMutability": "view",
      "type": "function",
      "constant": true
    },
    {
      "inputs": [
        {
          "internalType": "bytes32",
          "name": "role",
          "type": "bytes32"
        }
      ],
      "name": "getRoleAdmin",
      "outputs": [
        {
          "internalType": "bytes32",
          "name": "",
          "type": "bytes32"
        }
      ],
      "stateMutability": "view",
      "type": "function",
      "constant": true
    },
    {
      "inputs": [
        {
          "internalType": "bytes32",
          "name": "role",
          "type": "bytes32"
        },
        {
          "internalType": "uint256",
          "name": "index",
          "type": "uint256"
        }
      ],
      "name": "getRoleMember",
      "outputs": [
        {
          "internalType": "address",
          "name": "",
          "type": "address"
        }
      ],
      "stateMutability": "view",
      "type": "function",
      "constant": true
    },
    {
      "inputs": [
        {
          "internalType": "bytes32",
          "name": "role",
          "type": "bytes32"
        }
      ],
      "name": "getRoleMemberCount",
      "outputs": [
        {
          "internalType": "uint256",
          "name": "",
          "type": "uint256"
        }
      ],
      "stateMutability": "view",
      "type": "function",
      "constant": true
    },
    {
      "inputs": [
        {
          "internalType": "bytes32",
          "name": "role",
          "type": "bytes32"
        },
        {
          "internalType": "address",
          "name": "account",
          "type": "address"
        }
      ],
      "name": "grantRole",
      "outputs": [],
      "stateMutability": "nonpayable",
      "type": "function"
    },
    {
      "inputs": [
        {
          "internalType": "bytes32",
          "name": "role",
          "type": "bytes32"
        },
        {
          "internalType": "address",
          "name": "account",
          "type": "address"
        }
      ],
      "name": "hasRole",
      "outputs": [
        {
          "internalType": "bool",
          "name": "",
          "type": "bool"
        }
      ],
      "stateMutability": "view",
      "type": "function",
      "constant": true
    },
    {
      "inputs": [
        {
          "internalType": "address",
          "name": "owner",
          "type": "address"
        },
        {
          "internalType": "address",
          "name": "operator",
          "type": "address"
        }
      ],
      "name": "isApprovedForAll",
      "outputs": [
        {
          "internalType": "bool",
          "name": "",
          "type": "bool"
        }
      ],
      "stateMutability": "view",
      "type": "function",
      "constant": true
    },
    {
      "inputs": [],
      "name": "name",
      "outputs": [
        {
          "internalType": "string",
          "name": "",
          "type": "string"
        }
      ],
      "stateMutability": "view",
      "type": "function",
      "constant": true
    },
    {
      "inputs": [],
      "name": "owner",
      "outputs": [
        {
          "internalType": "address",
          "name": "",
          "type": "address"
        }
      ],
      "stateMutability": "view",
      "type": "function",
      "constant": true
    },
    {
      "inputs": [
        {
          "internalType": "uint256",
          "name": "tokenId",
          "type": "uint256"
        }
      ],
      "name": "ownerOf",
      "outputs": [
        {
          "internalType": "address",
          "name": "",
          "type": "address"
        }
      ],
      "stateMutability": "view",
      "type": "function",
      "constant": true
    },
    {
      "inputs": [],
      "name": "renounceOwnership",
      "outputs": [],
      "stateMutability": "nonpayable",
      "type": "function"
    },
    {
      "inputs": [
        {
          "internalType": "bytes32",
          "name": "role",
          "type": "bytes32"
        },
        {
          "internalType": "address",
          "name": "account",
          "type": "address"
        }
      ],
      "name": "renounceRole",
      "outputs": [],
      "stateMutability": "nonpayable",
      "type": "function"
    },
    {
      "inputs": [
        {
          "internalType": "bytes32",
          "name": "role",
          "type": "bytes32"
        },
        {
          "internalType": "address",
          "name": "account",
          "type": "address"
        }
      ],
      "name": "revokeRole",
      "outputs": [],
      "stateMutability": "nonpayable",
      "type": "function"
    },
    {
      "inputs": [
        {
          "internalType": "address",
          "name": "from",
          "type": "address"
        },
        {
          "internalType": "address",
          "name": "to",
          "type": "address"
        },
        {
          "internalType": "uint256",
          "name": "tokenId",
          "type": "uint256"
        }
      ],
      "name": "safeTransferFrom",
      "outputs": [],
      "stateMutability": "nonpayable",
      "type": "function"
    },
    {
      "inputs": [
        {
          "internalType": "address",
          "name": "from",
          "type": "address"
        },
        {
          "internalType": "address",
          "name": "to",
          "type": "address"
        },
        {
          "internalType": "uint256",
          "name": "tokenId",
          "type": "uint256"
        },
        {
          "internalType": "bytes",
          "name": "_data",
          "type": "bytes"
        }
      ],
      "name": "safeTransferFrom",
      "outputs": [],
      "stateMutability": "nonpayable",
      "type": "function"
    },
    {
      "inputs": [
        {
          "internalType": "address",
          "name": "operator",
          "type": "address"
        },
        {
          "internalType": "bool",
          "name": "approved",
          "type": "bool"
        }
      ],
      "name": "setApprovalForAll",
      "outputs": [],
      "stateMutability": "nonpayable",
      "type": "function"
    },
    {
      "inputs": [
        {
          "internalType": "bytes4",
          "name": "interfaceId",
          "type": "bytes4"
        }
      ],
      "name": "supportsInterface",
      "outputs": [
        {
          "internalType": "bool",
          "name": "",
          "type": "bool"
        }
      ],
      "stateMutability": "view",
      "type": "function",
      "constant": true
    },
    {
      "inputs": [],
      "name": "symbol",
      "outputs": [
        {
          "internalType": "string",
          "name": "",
          "type": "string"
        }
      ],
      "stateMutability": "view",
      "type": "function",
      "constant": true
    },
    {
      "inputs": [
        {
          "internalType": "uint256",
          "name": "index",
          "type": "uint256"
        }
      ],
      "name": "tokenByIndex",
      "outputs": [
        {
          "internalType": "uint256",
          "name": "",
          "type": "uint256"
        }
      ],
      "stateMutability": "view",
      "type": "function",
      "constant": true
    },
    {
      "inputs": [
        {
          "internalType": "address",
          "name": "owner",
          "type": "address"
        },
        {
          "internalType": "uint256",
          "name": "index",
          "type": "uint256"
        }
      ],
      "name": "tokenOfOwnerByIndex",
      "outputs": [
        {
          "internalType": "uint256",
          "name": "",
          "type": "uint256"
        }
      ],
      "stateMutability": "view",
      "type": "function",
      "constant": true
    },
    {
      "inputs": [
        {
          "internalType": "uint256",
          "name": "tokenId",
          "type": "uint256"
        }
      ],
      "name": "tokenURI",
      "outputs": [
        {
          "internalType": "string",
          "name": "",
          "type": "string"
        }
      ],
      "stateMutability": "view",
      "type": "function",
      "constant": true
    },
    {
      "inputs": [],
      "name": "totalSupply",
      "outputs": [
        {
          "internalType": "uint256",
          "name": "",
          "type": "uint256"
        }
      ],
      "stateMutability": "view",
      "type": "function",
      "constant": true
    },
    {
      "inputs": [
        {
          "internalType": "address",
          "name": "from",
          "type": "address"
        },
        {
          "internalType": "address",
          "name": "to",
          "type": "address"
        },
        {
          "internalType": "uint256",
          "name": "tokenId",
          "type": "uint256"
        }
      ],
      "name": "transferFrom",
      "outputs": [],
      "stateMutability": "nonpayable",
      "type": "function"
    },
    {
      "inputs": [
        {
          "internalType": "address",
          "name": "newOwner",
          "type": "address"
        }
      ],
      "name": "transferOwnership",
      "outputs": [],
      "stateMutability": "nonpayable",
      "type": "function"
    },
    {
      "inputs": [
        {
          "internalType": "address",
          "name": "minter",
          "type": "address"
        }
      ],
      "name": "addMinters",
      "outputs": [],
      "stateMutability": "nonpayable",
      "type": "function"
    },
    {
      "inputs": [
        {
          "internalType": "address",
          "name": "minter",
          "type": "address"
        }
      ],
      "name": "removeMinters",
      "outputs": [],
      "stateMutability": "nonpayable",
      "type": "function"
    },
    {
      "inputs": [
        {
          "internalType": "string",
          "name": "_propertyId",
          "type": "string"
        },
        {
          "internalType": "string",
          "name": "_propertyAddress",
          "type": "string"
        },
        {
          "internalType": "uint256",
          "name": "_propertyLength",
          "type": "uint256"
        },
        {
          "internalType": "uint256",
          "name": "_propertyWidth",
          "type": "uint256"
        },
        {
          "internalType": "address",
          "name": "_owner",
          "type": "address"
        }
      ],
      "name": "mintProperty",
      "outputs": [],
      "stateMutability": "nonpayable",
      "type": "function"
    },
    {
      "inputs": [
        {
          "internalType": "address",
          "name": "_from",
          "type": "address"
        },
        {
          "internalType": "address",
          "name": "_to",
          "type": "address"
        },
        {
          "internalType": "uint256",
          "name": "_tokenId",
          "type": "uint256"
        }
      ],
      "name": "transferProperty",
      "outputs": [],
      "stateMutability": "nonpayable",
      "type": "function"
    },
    {
      "inputs": [
        {
          "internalType": "uint256",
          "name": "id",
          "type": "uint256"
        }
      ],
      "name": "getPropertyFromId",
      "outputs": [
        {
          "components": [
            {
              "internalType": "string",
              "name": "propertyId",
              "type": "string"
            },
            {
              "internalType": "string",
              "name": "propertyAddress",
              "type": "string"
            },
            {
              "internalType": "uint256",
              "name": "propertyLength",
              "type": "uint256"
            },
            {
              "internalType": "uint256",
              "name": "propertyWidth",
              "type": "uint256"
            }
          ],
          "internalType": "struct PropertyPool.Property",
          "name": "",
          "type": "tuple"
        }
      ],
      "stateMutability": "view",
      "type": "function",
      "constant": true
    },
    {
      "inputs": [],
      "name": "getAllProperties",
      "outputs": [
        {
          "components": [
            {
              "internalType": "string",
              "name": "propertyId",
              "type": "string"
            },
            {
              "internalType": "string",
              "name": "propertyAddress",
              "type": "string"
            },
            {
              "internalType": "uint256",
              "name": "propertyLength",
              "type": "uint256"
            },
            {
              "internalType": "uint256",
              "name": "propertyWidth",
              "type": "uint256"
            }
          ],
          "internalType": "struct PropertyPool.Property[]",
          "name": "",
          "type": "tuple[]"
        }
      ],
      "stateMutability": "view",
      "type": "function",
      "constant": true
    }
  ],
  "bytecode": "0x60806040523480156200001157600080fd5b506040518060400160405280600c81526020017f50726f7065727479506f6f6c00000000000000000000000000000000000000008152506040518060400160405280600381526020017f50504c0000000000000000000000000000000000000000000000000000000000815250620000966301ffc9a760e01b6200038760201b60201c565b8160069080519060200190620000ae929190620009b8565b508060079080519060200190620000c7929190620009b8565b50620000e06380ac58cd60e01b6200038760201b60201c565b620000f8635b5e139f60e01b6200038760201b60201c565b6200011063780e9d6360e01b6200038760201b60201c565b50506000620001246200045f60201b60201c565b905080600a60006101000a81548173ffffffffffffffffffffffffffffffffffffffff021916908373ffffffffffffffffffffffffffffffffffffffff1602179055508073ffffffffffffffffffffffffffffffffffffffff16600073ffffffffffffffffffffffffffffffffffffffff167f8be0079c531659141344cd1fd0a4f28419497f9722a3daafe3b4186f6b6457e060405160405180910390a350620002157f9f2df0fed2c77648de5860a4cc508cd0818c85b8b8a1ab4ceeef8d981c8956a67f70480ee89cb38eff00b7d23da25713d52ce19c6ed428691d22c58b2f615e3d676200046760201b60201c565b620002477f70480ee89cb38eff00b7d23da25713d52ce19c6ed428691d22c58b2f615e3d6733620004cb60201b60201c565b6200025162000a3f565b60405180608001604052806040518060400160405280600381526020017f303030000000000000000000000000000000000000000000000000000000000081525081526020016040518060400160405280600581526020017f496e64696100000000000000000000000000000000000000000000000000000081525081526020016000815260200160008152509050600c81908060018154018082558091505060019003906000526020600020906004020160009091909190915060008201518160000190805190602001906200032a929190620009b8565b50602082015181600101908051906020019062000349929190620009b8565b506040820151816002015560608201518160030155505060006001600c805490500390506200037f3382620004e160201b60201c565b505062000bc3565b63ffffffff60e01b817bffffffffffffffffffffffffffffffffffffffffffffffffffffffff19161415620003f3576040517f08c379a0000000000000000000000000000000000000000000000000000000008152600401620003ea9062000b4c565b60405180910390fd5b6001600080837bffffffffffffffffffffffffffffffffffffffffffffffffffffffff19167bffffffffffffffffffffffffffffffffffffffffffffffffffffffff1916815260200190815260200160002060006101000a81548160ff02191690831515021790555050565b600033905090565b80600b600084815260200190815260200160002060020154837fbd79b86ffe0ab8e8776151514217cd7cacd52c909f66475c3af44e129f0b00ff60405160405180910390a480600b6000848152602001908152602001600020600201819055505050565b620004dd82826200069360201b60201c565b5050565b600073ffffffffffffffffffffffffffffffffffffffff168273ffffffffffffffffffffffffffffffffffffffff16141562000554576040517f08c379a00000000000000000000000000000000000000000000000000000000081526004016200054b9062000b90565b60405180910390fd5b62000565816200073760201b60201c565b15620005a8576040517f08c379a00000000000000000000000000000000000000000000000000000000081526004016200059f9062000b6e565b60405180910390fd5b620005bc600083836200075b60201b60201c565b6200061481600160008573ffffffffffffffffffffffffffffffffffffffff1673ffffffffffffffffffffffffffffffffffffffff1681526020019081526020016000206200076060201b62001d091790919060201c565b5062000632818360026200078260201b62001d23179092919060201c565b50808273ffffffffffffffffffffffffffffffffffffffff16600073ffffffffffffffffffffffffffffffffffffffff167fddf252ad1be2c89b69c2b068fc378daa952ba7f163c4a11628f55a4df523b3ef60405160405180910390a45050565b620006c281600b6000858152602001908152602001600020600001620007bf60201b62001d581790919060201c565b156200073357620006d86200045f60201b60201c565b73ffffffffffffffffffffffffffffffffffffffff168173ffffffffffffffffffffffffffffffffffffffff16837f2f8788117e7eff1d82e926ec794901d17c78024a50270940304540a733656f0d60405160405180910390a45b5050565b600062000754826002620007f760201b62001d881790919060201c565b9050919050565b505050565b60006200077a836000018360001b6200081960201b60201c565b905092915050565b6000620007b6846000018460001b8473ffffffffffffffffffffffffffffffffffffffff1660001b6200089360201b60201c565b90509392505050565b6000620007ef836000018373ffffffffffffffffffffffffffffffffffffffff1660001b6200081960201b60201c565b905092915050565b600062000811836000018360001b6200097260201b60201c565b905092915050565b60006200082d83836200099560201b60201c565b620008885782600001829080600181540180825580915050600190039060005260206000200160009091909190915055826000018054905083600101600084815260200190815260200160002081905550600190506200088d565b600090505b92915050565b60008084600101600085815260200190815260200160002054905060008114156200093c578460000160405180604001604052808681526020018581525090806001815401808255809150506001900390600052602060002090600202016000909190919091506000820151816000015560208201518160010155505084600001805490508560010160008681526020019081526020016000208190555060019150506200096b565b828560000160018303815481106200095057fe5b90600052602060002090600202016001018190555060009150505b9392505050565b600080836001016000848152602001908152602001600020541415905092915050565b600080836001016000848152602001908152602001600020541415905092915050565b828054600181600116156101000203166002900490600052602060002090601f016020900481019282601f10620009fb57805160ff191683800117855562000a2c565b8280016001018555821562000a2c579182015b8281111562000a2b57825182559160200191906001019062000a0e565b5b50905062000a3b919062000a67565b5090565b6040518060800160405280606081526020016060815260200160008152602001600081525090565b5b8082111562000a8257600081600090555060010162000a68565b5090565b600062000a95601c8362000bb2565b91507f4552433136353a20696e76616c696420696e74657266616365206964000000006000830152602082019050919050565b600062000ad7601c8362000bb2565b91507f4552433732313a20746f6b656e20616c7265616479206d696e746564000000006000830152602082019050919050565b600062000b1960208362000bb2565b91507f4552433732313a206d696e7420746f20746865207a65726f20616464726573736000830152602082019050919050565b6000602082019050818103600083015262000b678162000a86565b9050919050565b6000602082019050818103600083015262000b898162000ac8565b9050919050565b6000602082019050818103600083015262000bab8162000b0a565b9050919050565b600082825260208201905092915050565b6145938062000bd36000396000f3fe608060405234801561001057600080fd5b506004361061021c5760003560e01c80636c0360eb11610125578063a217fddf116100ad578063ca15c8731161007c578063ca15c8731461065f578063d53913931461068f578063d547741f146106ad578063e985e9c5146106c9578063f2fde38b146106f95761021c565b8063a217fddf146105d9578063a22cb465146105f7578063b88d4fde14610613578063c87b56dd1461062f5761021c565b8063881b07b2116100f4578063881b07b21461050d5780638da5cb5b1461053d5780639010d07c1461055b57806391d148541461058b57806395d89b41146105bb5761021c565b80636c0360eb146104995780636d8359d7146104b757806370a08231146104d3578063715018a6146105035761021c565b8063248a9ca3116101a857806336568abe1161017757806336568abe146103e35780633d51402c146103ff57806342842e0e1461041d5780634f6ccce7146104395780636352211e146104695761021c565b8063248a9ca31461034b5780632f2ff15d1461037b5780632f745c591461039757806331c89bb6146103c75761021c565b80631339324b116101ef5780631339324b146102bb57806314991082146102d957806318160ddd146102f557806319df0bc21461031357806323b872dd1461032f5761021c565b806301ffc9a71461022157806306fdde0314610251578063081812fc1461026f578063095ea7b31461029f575b600080fd5b61023b6004803603810190610236919061320d565b610715565b6040516102489190613f45565b60405180910390f35b61025961077c565b6040516102669190613f7b565b60405180910390f35b61028960048036038101906102849190613306565b61081e565b6040516102969190613e5c565b60405180910390f35b6102b960048036038101906102b49190613130565b6108a3565b005b6102c36109bb565b6040516102d09190613f60565b60405180910390f35b6102f360048036038101906102ee919061302a565b6109df565b005b6102fd610a2a565b60405161030a919061425f565b60405180910390f35b61032d60048036038101906103289190612fc5565b610a3b565b005b6103496004803603810190610344919061302a565b610aff565b005b6103656004803603810190610360919061316c565b610b5f565b6040516103729190613f60565b60405180910390f35b61039560048036038101906103909190613195565b610b7f565b005b6103b160048036038101906103ac9190613130565b610bf3565b6040516103be919061425f565b60405180910390f35b6103e160048036038101906103dc9190612fc5565b610c4e565b005b6103fd60048036038101906103f89190613195565b610d12565b005b610407610d95565b6040516104149190613f23565b60405180910390f35b6104376004803603810190610432919061302a565b610f4c565b005b610453600480360381019061044e9190613306565b610f6c565b604051610460919061425f565b60405180910390f35b610483600480360381019061047e9190613306565b610f8f565b6040516104909190613e5c565b60405180910390f35b6104a1610fc6565b6040516104ae9190613f7b565b60405180910390f35b6104d160048036038101906104cc919061325f565b611068565b005b6104ed60048036038101906104e89190612fc5565b6111a6565b6040516104fa919061425f565b60405180910390f35b61050b611265565b005b61052760048036038101906105229190613306565b6113bd565b604051610534919061423d565b60405180910390f35b61054561154a565b6040516105529190613e5c565b60405180910390f35b610575600480360381019061057091906131d1565b611574565b6040516105829190613e5c565b60405180910390f35b6105a560048036038101906105a09190613195565b6115a6565b6040516105b29190613f45565b60405180910390f35b6105c36115d8565b6040516105d09190613f7b565b60405180910390f35b6105e161167a565b6040516105ee9190613f60565b60405180910390f35b610611600480360381019061060c91906130f4565b611681565b005b61062d60048036038101906106289190613079565b611802565b005b61064960048036038101906106449190613306565b611864565b6040516106569190613f7b565b60405180910390f35b6106796004803603810190610674919061316c565b6119ef565b604051610686919061425f565b60405180910390f35b610697611a16565b6040516106a49190613f60565b60405180910390f35b6106c760048036038101906106c29190613195565b611a3a565b005b6106e360048036038101906106de9190612fee565b611aae565b6040516106f09190613f45565b60405180910390f35b610713600480360381019061070e9190612fc5565b611b42565b005b6000806000837bffffffffffffffffffffffffffffffffffffffffffffffffffffffff19167bffffffffffffffffffffffffffffffffffffffffffffffffffffffff1916815260200190815260200160002060009054906101000a900460ff169050919050565b606060068054600181600116156101000203166002900480601f0160208091040260200160405190810160405280929190818152602001828054600181600116156101000203166002900480156108145780601f106107e957610100808354040283529160200191610814565b820191906000526020600020905b8154815290600101906020018083116107f757829003601f168201915b5050505050905090565b600061082982611da2565b610868576040517f08c379a000000000000000000000000000000000000000000000000000000000815260040161085f9061413d565b60405180910390fd5b6004600083815260200190815260200160002060009054906101000a900473ffffffffffffffffffffffffffffffffffffffff169050919050565b60006108ae82610f8f565b90508073ffffffffffffffffffffffffffffffffffffffff168373ffffffffffffffffffffffffffffffffffffffff16141561091f576040517f08c379a0000000000000000000000000000000000000000000000000000000008152600401610916906141bd565b60405180910390fd5b8073ffffffffffffffffffffffffffffffffffffffff1661093e611dbf565b73ffffffffffffffffffffffffffffffffffffffff16148061096d575061096c81610967611dbf565b611aae565b5b6109ac576040517f08c379a00000000000000000000000000000000000000000000000000000000081526004016109a3906140bd565b60405180910390fd5b6109b68383611dc7565b505050565b7f70480ee89cb38eff00b7d23da25713d52ce19c6ed428691d22c58b2f615e3d6781565b6109ea838383610aff565b7fbaf97b999d08040caea11a3c248d96f32c81109f4f95d5463769de0db56fa6f1838383604051610a1d93929190613ec3565b60405180910390a1505050565b6000610a366002611e80565b905090565b610a43611dbf565b73ffffffffffffffffffffffffffffffffffffffff16600a60009054906101000a900473ffffffffffffffffffffffffffffffffffffffff1673ffffffffffffffffffffffffffffffffffffffff1614610ad2576040517f08c379a0000000000000000000000000000000000000000000000000000000008152600401610ac99061415d565b60405180910390fd5b610afc7f9f2df0fed2c77648de5860a4cc508cd0818c85b8b8a1ab4ceeef8d981c8956a682610b7f565b50565b610b10610b0a611dbf565b82611e95565b610b4f576040517f08c379a0000000000000000000000000000000000000000000000000000000008152600401610b46906141dd565b60405180910390fd5b610b5a838383611f73565b505050565b6000600b6000838152602001908152602001600020600201549050919050565b610ba6600b600084815260200190815260200160002060020154610ba1611dbf565b6115a6565b610be5576040517f08c379a0000000000000000000000000000000000000000000000000000000008152600401610bdc90613fbd565b60405180910390fd5b610bef828261218a565b5050565b6000610c4682600160008673ffffffffffffffffffffffffffffffffffffffff1673ffffffffffffffffffffffffffffffffffffffff16815260200190815260200160002061221e90919063ffffffff16565b905092915050565b610c56611dbf565b73ffffffffffffffffffffffffffffffffffffffff16600a60009054906101000a900473ffffffffffffffffffffffffffffffffffffffff1673ffffffffffffffffffffffffffffffffffffffff1614610ce5576040517f08c379a0000000000000000000000000000000000000000000000000000000008152600401610cdc9061415d565b60405180910390fd5b610d0f7f9f2df0fed2c77648de5860a4cc508cd0818c85b8b8a1ab4ceeef8d981c8956a682611a3a565b50565b610d1a611dbf565b73ffffffffffffffffffffffffffffffffffffffff168173ffffffffffffffffffffffffffffffffffffffff1614610d87576040517f08c379a0000000000000000000000000000000000000000000000000000000008152600401610d7e9061421d565b60405180910390fd5b610d918282612238565b5050565b6060600c805480602002602001604051908101604052809291908181526020016000905b82821015610f435783829060005260206000209060040201604051806080016040529081600082018054600181600116156101000203166002900480601f016020809104026020016040519081016040528092919081815260200182805460018160011615610100020316600290048015610e755780601f10610e4a57610100808354040283529160200191610e75565b820191906000526020600020905b815481529060010190602001808311610e5857829003601f168201915b50505050508152602001600182018054600181600116156101000203166002900480601f016020809104026020016040519081016040528092919081815260200182805460018160011615610100020316600290048015610f175780601f10610eec57610100808354040283529160200191610f17565b820191906000526020600020905b815481529060010190602001808311610efa57829003601f168201915b505050505081526020016002820154815260200160038201548152505081526020019060010190610db9565b50505050905090565b610f6783838360405180602001604052806000815250611802565b505050565b600080610f838360026122cc90919063ffffffff16565b50905080915050919050565b6000610fbf826040518060600160405280602981526020016145356029913960026122f89092919063ffffffff16565b9050919050565b606060098054600181600116156101000203166002900480601f01602080910402602001604051908101604052809291908181526020018280546001816001161561010002031660029004801561105e5780601f106110335761010080835404028352916020019161105e565b820191906000526020600020905b81548152906001019060200180831161104157829003601f168201915b5050505050905090565b6110927f9f2df0fed2c77648de5860a4cc508cd0818c85b8b8a1ab4ceeef8d981c8956a6336115a6565b61109b57600080fd5b6110a3612dda565b6040518060800160405280878152602001868152602001858152602001848152509050600c819080600181540180825580915050600190039060005260206000209060040201600090919091909150600082015181600001908051906020019061110e929190612e02565b50602082015181600101908051906020019061112b929190612e02565b506040820151816002015560608201518160030155505060006001600c805490500390506111593382612317565b6111643384836109df565b7ffa19d0e5d5233ceaf33096ba01c98ff3d5457fda95b9b7b2e74bc99c6d9643498382604051611195929190613efa565b60405180910390a150505050505050565b60008073ffffffffffffffffffffffffffffffffffffffff168273ffffffffffffffffffffffffffffffffffffffff161415611217576040517f08c379a000000000000000000000000000000000000000000000000000000000815260040161120e906140dd565b60405180910390fd5b61125e600160008473ffffffffffffffffffffffffffffffffffffffff1673ffffffffffffffffffffffffffffffffffffffff1681526020019081526020016000206124a5565b9050919050565b61126d611dbf565b73ffffffffffffffffffffffffffffffffffffffff16600a60009054906101000a900473ffffffffffffffffffffffffffffffffffffffff1673ffffffffffffffffffffffffffffffffffffffff16146112fc576040517f08c379a00000000000000000000000000000000000000000000000000000000081526004016112f39061415d565b60405180910390fd5b600073ffffffffffffffffffffffffffffffffffffffff16600a60009054906101000a900473ffffffffffffffffffffffffffffffffffffffff1673ffffffffffffffffffffffffffffffffffffffff167f8be0079c531659141344cd1fd0a4f28419497f9722a3daafe3b4186f6b6457e060405160405180910390a36000600a60006101000a81548173ffffffffffffffffffffffffffffffffffffffff021916908373ffffffffffffffffffffffffffffffffffffffff160217905550565b6113c5612dda565b600c82815481106113d257fe5b9060005260206000209060040201604051806080016040529081600082018054600181600116156101000203166002900480601f0160208091040260200160405190810160405280929190818152602001828054600181600116156101000203166002900480156114845780601f1061145957610100808354040283529160200191611484565b820191906000526020600020905b81548152906001019060200180831161146757829003601f168201915b50505050508152602001600182018054600181600116156101000203166002900480601f0160208091040260200160405190810160405280929190818152602001828054600181600116156101000203166002900480156115265780601f106114fb57610100808354040283529160200191611526565b820191906000526020600020905b81548152906001019060200180831161150957829003601f168201915b50505050508152602001600282015481526020016003820154815250509050919050565b6000600a60009054906101000a900473ffffffffffffffffffffffffffffffffffffffff16905090565b600061159e82600b60008681526020019081526020016000206000016124ba90919063ffffffff16565b905092915050565b60006115d082600b60008681526020019081526020016000206000016124d490919063ffffffff16565b905092915050565b606060078054600181600116156101000203166002900480601f0160208091040260200160405190810160405280929190818152602001828054600181600116156101000203166002900480156116705780601f1061164557610100808354040283529160200191611670565b820191906000526020600020905b81548152906001019060200180831161165357829003601f168201915b5050505050905090565b6000801b81565b611689611dbf565b73ffffffffffffffffffffffffffffffffffffffff168273ffffffffffffffffffffffffffffffffffffffff1614156116f7576040517f08c379a00000000000000000000000000000000000000000000000000000000081526004016116ee9061405d565b60405180910390fd5b8060056000611704611dbf565b73ffffffffffffffffffffffffffffffffffffffff1673ffffffffffffffffffffffffffffffffffffffff16815260200190815260200160002060008473ffffffffffffffffffffffffffffffffffffffff1673ffffffffffffffffffffffffffffffffffffffff16815260200190815260200160002060006101000a81548160ff0219169083151502179055508173ffffffffffffffffffffffffffffffffffffffff166117b1611dbf565b73ffffffffffffffffffffffffffffffffffffffff167f17307eab39ab6107e8899845ad3d59bd9653f200f220920489ca2b5937696c31836040516117f69190613f45565b60405180910390a35050565b61181361180d611dbf565b83611e95565b611852576040517f08c379a0000000000000000000000000000000000000000000000000000000008152600401611849906141dd565b60405180910390fd5b61185e84848484612504565b50505050565b606061186f82611da2565b6118ae576040517f08c379a00000000000000000000000000000000000000000000000000000000081526004016118a59061419d565b60405180910390fd5b6060600860008481526020019081526020016000208054600181600116156101000203166002900480601f0160208091040260200160405190810160405280929190818152602001828054600181600116156101000203166002900480156119575780601f1061192c57610100808354040283529160200191611957565b820191906000526020600020905b81548152906001019060200180831161193a57829003601f168201915b5050505050905060006009805460018160011615610100020316600290049050141561198657809150506119ea565b6000815111156119bb576009816040516020016119a4929190613e38565b6040516020818303038152906040529150506119ea565b60096119c684612560565b6040516020016119d7929190613e38565b6040516020818303038152906040529150505b919050565b6000611a0f600b60008481526020019081526020016000206000016126a7565b9050919050565b7f9f2df0fed2c77648de5860a4cc508cd0818c85b8b8a1ab4ceeef8d981c8956a681565b611a61600b600084815260200190815260200160002060020154611a5c611dbf565b6115a6565b611aa0576040517f08c379a0000000000000000000000000000000000000000000000000000000008152600401611a979061409d565b60405180910390fd5b611aaa8282612238565b5050565b6000600560008473ffffffffffffffffffffffffffffffffffffffff1673ffffffffffffffffffffffffffffffffffffffff16815260200190815260200160002060008373ffffffffffffffffffffffffffffffffffffffff1673ffffffffffffffffffffffffffffffffffffffff16815260200190815260200160002060009054906101000a900460ff16905092915050565b611b4a611dbf565b73ffffffffffffffffffffffffffffffffffffffff16600a60009054906101000a900473ffffffffffffffffffffffffffffffffffffffff1673ffffffffffffffffffffffffffffffffffffffff1614611bd9576040517f08c379a0000000000000000000000000000000000000000000000000000000008152600401611bd09061415d565b60405180910390fd5b600073ffffffffffffffffffffffffffffffffffffffff168173ffffffffffffffffffffffffffffffffffffffff161415611c49576040517f08c379a0000000000000000000000000000000000000000000000000000000008152600401611c4090613ffd565b60405180910390fd5b8073ffffffffffffffffffffffffffffffffffffffff16600a60009054906101000a900473ffffffffffffffffffffffffffffffffffffffff1673ffffffffffffffffffffffffffffffffffffffff167f8be0079c531659141344cd1fd0a4f28419497f9722a3daafe3b4186f6b6457e060405160405180910390a380600a60006101000a81548173ffffffffffffffffffffffffffffffffffffffff021916908373ffffffffffffffffffffffffffffffffffffffff16021790555050565b6000611d1b836000018360001b6126bc565b905092915050565b6000611d4f846000018460001b8473ffffffffffffffffffffffffffffffffffffffff1660001b61272c565b90509392505050565b6000611d80836000018373ffffffffffffffffffffffffffffffffffffffff1660001b6126bc565b905092915050565b6000611d9a836000018360001b612808565b905092915050565b6000611db8826002611d8890919063ffffffff16565b9050919050565b600033905090565b816004600083815260200190815260200160002060006101000a81548173ffffffffffffffffffffffffffffffffffffffff021916908373ffffffffffffffffffffffffffffffffffffffff160217905550808273ffffffffffffffffffffffffffffffffffffffff16611e3a83610f8f565b73ffffffffffffffffffffffffffffffffffffffff167f8c5be1e5ebec7d5bd14f71427d1e84f3dd0314c0f7b2291e5b200ac8c7c3b92560405160405180910390a45050565b6000611e8e8260000161282b565b9050919050565b6000611ea082611da2565b611edf576040517f08c379a0000000000000000000000000000000000000000000000000000000008152600401611ed69061407d565b60405180910390fd5b6000611eea83610f8f565b90508073ffffffffffffffffffffffffffffffffffffffff168473ffffffffffffffffffffffffffffffffffffffff161480611f5957508373ffffffffffffffffffffffffffffffffffffffff16611f418461081e565b73ffffffffffffffffffffffffffffffffffffffff16145b80611f6a5750611f698185611aae565b5b91505092915050565b8273ffffffffffffffffffffffffffffffffffffffff16611f9382610f8f565b73ffffffffffffffffffffffffffffffffffffffff1614611fe9576040517f08c379a0000000000000000000000000000000000000000000000000000000008152600401611fe09061417d565b60405180910390fd5b600073ffffffffffffffffffffffffffffffffffffffff168273ffffffffffffffffffffffffffffffffffffffff161415612059576040517f08c379a00000000000000000000000000000000000000000000000000000000081526004016120509061403d565b60405180910390fd5b61206483838361283c565b61206f600082611dc7565b6120c081600160008673ffffffffffffffffffffffffffffffffffffffff1673ffffffffffffffffffffffffffffffffffffffff16815260200190815260200160002061284190919063ffffffff16565b5061211281600160008573ffffffffffffffffffffffffffffffffffffffff1673ffffffffffffffffffffffffffffffffffffffff168152602001908152602001600020611d0990919063ffffffff16565b5061212981836002611d239092919063ffffffff16565b50808273ffffffffffffffffffffffffffffffffffffffff168473ffffffffffffffffffffffffffffffffffffffff167fddf252ad1be2c89b69c2b068fc378daa952ba7f163c4a11628f55a4df523b3ef60405160405180910390a4505050565b6121b281600b6000858152602001908152602001600020600001611d5890919063ffffffff16565b1561221a576121bf611dbf565b73ffffffffffffffffffffffffffffffffffffffff168173ffffffffffffffffffffffffffffffffffffffff16837f2f8788117e7eff1d82e926ec794901d17c78024a50270940304540a733656f0d60405160405180910390a45b5050565b600061222d836000018361285b565b60001c905092915050565b61226081600b60008581526020019081526020016000206000016128c890919063ffffffff16565b156122c85761226d611dbf565b73ffffffffffffffffffffffffffffffffffffffff168173ffffffffffffffffffffffffffffffffffffffff16837ff6391f5c32d9c69d2a47ea670b442974b53935d1edc7fd64eb21e047a839171b60405160405180910390a45b5050565b6000806000806122df86600001866128f8565b915091508160001c8160001c9350935050509250929050565b600061230b846000018460001b8461297b565b60001c90509392505050565b600073ffffffffffffffffffffffffffffffffffffffff168273ffffffffffffffffffffffffffffffffffffffff161415612387576040517f08c379a000000000000000000000000000000000000000000000000000000000815260040161237e9061411d565b60405180910390fd5b61239081611da2565b156123d0576040517f08c379a00000000000000000000000000000000000000000000000000000000081526004016123c79061401d565b60405180910390fd5b6123dc6000838361283c565b61242d81600160008573ffffffffffffffffffffffffffffffffffffffff1673ffffffffffffffffffffffffffffffffffffffff168152602001908152602001600020611d0990919063ffffffff16565b5061244481836002611d239092919063ffffffff16565b50808273ffffffffffffffffffffffffffffffffffffffff16600073ffffffffffffffffffffffffffffffffffffffff167fddf252ad1be2c89b69c2b068fc378daa952ba7f163c4a11628f55a4df523b3ef60405160405180910390a45050565b60006124b382600001612a0c565b9050919050565b60006124c9836000018361285b565b60001c905092915050565b60006124fc836000018373ffffffffffffffffffffffffffffffffffffffff1660001b612a1d565b905092915050565b61250f848484611f73565b61251b84848484612a40565b61255a576040517f08c379a000000000000000000000000000000000000000000000000000000000815260040161255190613fdd565b60405180910390fd5b50505050565b606060008214156125a8576040518060400160405280600181526020017f300000000000000000000000000000000000000000000000000000000000000081525090506126a2565b600082905060005b600082146125d2578080600101915050600a82816125ca57fe5b0491506125b0565b60608167ffffffffffffffff811180156125eb57600080fd5b506040519080825280601f01601f19166020018201604052801561261e5781602001600182028036833780820191505090505b50905060006001830390508593505b6000841461269a57600a848161263f57fe5b0660300160f81b8282806001900393508151811061265957fe5b60200101907effffffffffffffffffffffffffffffffffffffffffffffffffffffffffffff1916908160001a905350600a848161269257fe5b04935061262d565b819450505050505b919050565b60006126b582600001612a0c565b9050919050565b60006126c88383612a1d565b612721578260000182908060018154018082558091505060019003906000526020600020016000909190919091505582600001805490508360010160008481526020019081526020016000208190555060019050612726565b600090505b92915050565b60008084600101600085815260200190815260200160002054905060008114156127d357846000016040518060400160405280868152602001858152509080600181540180825580915050600190039060005260206000209060020201600090919091909150600082015181600001556020820151816001015550508460000180549050856001016000868152602001908152602001600020819055506001915050612801565b828560000160018303815481106127e657fe5b90600052602060002090600202016001018190555060009150505b9392505050565b600080836001016000848152602001908152602001600020541415905092915050565b600081600001805490509050919050565b505050565b6000612853836000018360001b612ba4565b905092915050565b6000818360000180549050116128a6576040517f08c379a000000000000000000000000000000000000000000000000000000000815260040161289d90613f9d565b60405180910390fd5b8260000182815481106128b557fe5b9060005260206000200154905092915050565b60006128f0836000018373ffffffffffffffffffffffffffffffffffffffff1660001b612ba4565b905092915050565b60008082846000018054905011612944576040517f08c379a000000000000000000000000000000000000000000000000000000000815260040161293b906140fd565b60405180910390fd5b600084600001848154811061295557fe5b906000526020600020906002020190508060000154816001015492509250509250929050565b600080846001016000858152602001908152602001600020549050600081141583906129dd576040517f08c379a00000000000000000000000000000000000000000000000000000000081526004016129d49190613f7b565b60405180910390fd5b508460000160018203815481106129f057fe5b9060005260206000209060020201600101549150509392505050565b600081600001805490509050919050565b600080836001016000848152602001908152602001600020541415905092915050565b6000612a618473ffffffffffffffffffffffffffffffffffffffff16612c8c565b612a6e5760019050612b9c565b6060612b3563150b7a0260e01b612a83611dbf565b888787604051602401612a999493929190613e77565b604051602081830303815290604052907bffffffffffffffffffffffffffffffffffffffffffffffffffffffff19166020820180517bffffffffffffffffffffffffffffffffffffffffffffffffffffffff8381831617835250505050604051806060016040528060328152602001614503603291398773ffffffffffffffffffffffffffffffffffffffff16612c9f9092919063ffffffff16565b9050600081806020019051810190612b4d9190613236565b905063150b7a0260e01b7bffffffffffffffffffffffffffffffffffffffffffffffffffffffff1916817bffffffffffffffffffffffffffffffffffffffffffffffffffffffff191614925050505b949350505050565b60008083600101600084815260200190815260200160002054905060008114612c805760006001820390506000600186600001805490500390506000866000018281548110612bef57fe5b9060005260206000200154905080876000018481548110612c0c57fe5b9060005260206000200181905550600183018760010160008381526020019081526020016000208190555086600001805480612c4457fe5b60019003818190600052602060002001600090559055866001016000878152602001908152602001600020600090556001945050505050612c86565b60009150505b92915050565b600080823b905060008111915050919050565b6060612cae8484600085612cb7565b90509392505050565b6060612cc285612c8c565b612d01576040517f08c379a0000000000000000000000000000000000000000000000000000000008152600401612cf8906141fd565b60405180910390fd5b600060608673ffffffffffffffffffffffffffffffffffffffff168587604051612d2b9190613e21565b60006040518083038185875af1925050503d8060008114612d68576040519150601f19603f3d011682016040523d82523d6000602084013e612d6d565b606091505b50915091508115612d82578092505050612dd2565b600081511115612d955780518082602001fd5b836040517f08c379a0000000000000000000000000000000000000000000000000000000008152600401612dc99190613f7b565b60405180910390fd5b949350505050565b6040518060800160405280606081526020016060815260200160008152602001600081525090565b828054600181600116156101000203166002900490600052602060002090601f016020900481019282601f10612e4357805160ff1916838001178555612e71565b82800160010185558215612e71579182015b82811115612e70578251825591602001919060010190612e55565b5b509050612e7e9190612e82565b5090565b5b80821115612e9b576000816000905550600101612e83565b5090565b600081359050612eae8161448f565b92915050565b600081359050612ec3816144a6565b92915050565b600081359050612ed8816144bd565b92915050565b600081359050612eed816144d4565b92915050565b600081519050612f02816144d4565b92915050565b600082601f830112612f1957600080fd5b8135612f2c612f27826142a7565b61427a565b91508082526020830160208301858383011115612f4857600080fd5b612f5383828461443c565b50505092915050565b600082601f830112612f6d57600080fd5b8135612f80612f7b826142d3565b61427a565b91508082526020830160208301858383011115612f9c57600080fd5b612fa783828461443c565b50505092915050565b600081359050612fbf816144eb565b92915050565b600060208284031215612fd757600080fd5b6000612fe584828501612e9f565b91505092915050565b6000806040838503121561300157600080fd5b600061300f85828601612e9f565b925050602061302085828601612e9f565b9150509250929050565b60008060006060848603121561303f57600080fd5b600061304d86828701612e9f565b935050602061305e86828701612e9f565b925050604061306f86828701612fb0565b9150509250925092565b6000806000806080858703121561308f57600080fd5b600061309d87828801612e9f565b94505060206130ae87828801612e9f565b93505060406130bf87828801612fb0565b925050606085013567ffffffffffffffff8111156130dc57600080fd5b6130e887828801612f08565b91505092959194509250565b6000806040838503121561310757600080fd5b600061311585828601612e9f565b925050602061312685828601612eb4565b9150509250929050565b6000806040838503121561314357600080fd5b600061315185828601612e9f565b925050602061316285828601612fb0565b9150509250929050565b60006020828403121561317e57600080fd5b600061318c84828501612ec9565b91505092915050565b600080604083850312156131a857600080fd5b60006131b685828601612ec9565b92505060206131c785828601612e9f565b9150509250929050565b600080604083850312156131e457600080fd5b60006131f285828601612ec9565b925050602061320385828601612fb0565b9150509250929050565b60006020828403121561321f57600080fd5b600061322d84828501612ede565b91505092915050565b60006020828403121561324857600080fd5b600061325684828501612ef3565b91505092915050565b600080600080600060a0868803121561327757600080fd5b600086013567ffffffffffffffff81111561329157600080fd5b61329d88828901612f5c565b955050602086013567ffffffffffffffff8111156132ba57600080fd5b6132c688828901612f5c565b94505060406132d788828901612fb0565b93505060606132e888828901612fb0565b92505060806132f988828901612e9f565b9150509295509295909350565b60006020828403121561331857600080fd5b600061332684828501612fb0565b91505092915050565b600061333b8383613d2f565b905092915050565b61334c816143be565b82525050565b61335b816143ac565b82525050565b600061336c82614324565b6133768185614352565b935083602082028501613388856142ff565b8060005b858110156133c457848403895281516133a5858261332f565b94506133b083614345565b925060208a0199505060018101905061338c565b50829750879550505050505092915050565b6133df816143d0565b82525050565b6133ee816143dc565b82525050565b60006133ff8261432f565b6134098185614363565b935061341981856020860161444b565b6134228161447e565b840191505092915050565b60006134388261432f565b6134428185614374565b935061345281856020860161444b565b80840191505092915050565b60006134698261433a565b613473818561437f565b935061348381856020860161444b565b61348c8161447e565b840191505092915050565b60006134a28261433a565b6134ac8185614390565b93506134bc81856020860161444b565b6134c58161447e565b840191505092915050565b60006134db8261433a565b6134e581856143a1565b93506134f581856020860161444b565b80840191505092915050565b60008154600181166000811461351e576001811461354357613587565b607f600283041661352f81876143a1565b955060ff1983168652808601935050613587565b6002820461355181876143a1565b955061355c8561430f565b60005b8281101561357e5781548189015260018201915060208101905061355f565b82880195505050505b505092915050565b600061359c602283614390565b91507f456e756d657261626c655365743a20696e646578206f7574206f6620626f756e60008301527f64730000000000000000000000000000000000000000000000000000000000006020830152604082019050919050565b6000613602602f83614390565b91507f416363657373436f6e74726f6c3a2073656e646572206d75737420626520616e60008301527f2061646d696e20746f206772616e7400000000000000000000000000000000006020830152604082019050919050565b6000613668603283614390565b91507f4552433732313a207472616e7366657220746f206e6f6e20455243373231526560008301527f63656976657220696d706c656d656e74657200000000000000000000000000006020830152604082019050919050565b60006136ce602683614390565b91507f4f776e61626c653a206e6577206f776e657220697320746865207a65726f206160008301527f64647265737300000000000000000000000000000000000000000000000000006020830152604082019050919050565b6000613734601c83614390565b91507f4552433732313a20746f6b656e20616c7265616479206d696e746564000000006000830152602082019050919050565b6000613774602483614390565b91507f4552433732313a207472616e7366657220746f20746865207a65726f2061646460008301527f72657373000000000000000000000000000000000000000000000000000000006020830152604082019050919050565b60006137da601983614390565b91507f4552433732313a20617070726f766520746f2063616c6c6572000000000000006000830152602082019050919050565b600061381a602c83614390565b91507f4552433732313a206f70657261746f7220717565727920666f72206e6f6e657860008301527f697374656e7420746f6b656e00000000000000000000000000000000000000006020830152604082019050919050565b6000613880603083614390565b91507f416363657373436f6e74726f6c3a2073656e646572206d75737420626520616e60008301527f2061646d696e20746f207265766f6b65000000000000000000000000000000006020830152604082019050919050565b60006138e6603883614390565b91507f4552433732313a20617070726f76652063616c6c6572206973206e6f74206f7760008301527f6e6572206e6f7220617070726f76656420666f7220616c6c00000000000000006020830152604082019050919050565b600061394c602a83614390565b91507f4552433732313a2062616c616e636520717565727920666f7220746865207a6560008301527f726f2061646472657373000000000000000000000000000000000000000000006020830152604082019050919050565b60006139b2602283614390565b91507f456e756d657261626c654d61703a20696e646578206f7574206f6620626f756e60008301527f64730000000000000000000000000000000000000000000000000000000000006020830152604082019050919050565b6000613a18602083614390565b91507f4552433732313a206d696e7420746f20746865207a65726f20616464726573736000830152602082019050919050565b6000613a58602c83614390565b91507f4552433732313a20617070726f76656420717565727920666f72206e6f6e657860008301527f697374656e7420746f6b656e00000000000000000000000000000000000000006020830152604082019050919050565b6000613abe602083614390565b91507f4f776e61626c653a2063616c6c6572206973206e6f7420746865206f776e65726000830152602082019050919050565b6000613afe602983614390565b91507f4552433732313a207472616e73666572206f6620746f6b656e2074686174206960008301527f73206e6f74206f776e00000000000000000000000000000000000000000000006020830152604082019050919050565b6000613b64602f83614390565b91507f4552433732314d657461646174613a2055524920717565727920666f72206e6f60008301527f6e6578697374656e7420746f6b656e00000000000000000000000000000000006020830152604082019050919050565b6000613bca602183614390565b91507f4552433732313a20617070726f76616c20746f2063757272656e74206f776e6560008301527f72000000000000000000000000000000000000000000000000000000000000006020830152604082019050919050565b6000613c30603183614390565b91507f4552433732313a207472616e736665722063616c6c6572206973206e6f74206f60008301527f776e6572206e6f7220617070726f7665640000000000000000000000000000006020830152604082019050919050565b6000613c96601d83614390565b91507f416464726573733a2063616c6c20746f206e6f6e2d636f6e74726163740000006000830152602082019050919050565b6000613cd6602f83614390565b91507f416363657373436f6e74726f6c3a2063616e206f6e6c792072656e6f756e636560008301527f20726f6c657320666f722073656c6600000000000000000000000000000000006020830152604082019050919050565b60006080830160008301518482036000860152613d4c828261345e565b91505060208301518482036020860152613d66828261345e565b9150506040830151613d7b6040860182613e03565b506060830151613d8e6060860182613e03565b508091505092915050565b60006080830160008301518482036000860152613db6828261345e565b91505060208301518482036020860152613dd0828261345e565b9150506040830151613de56040860182613e03565b506060830151613df86060860182613e03565b508091505092915050565b613e0c81614432565b82525050565b613e1b81614432565b82525050565b6000613e2d828461342d565b915081905092915050565b6000613e448285613501565b9150613e5082846134d0565b91508190509392505050565b6000602082019050613e716000830184613352565b92915050565b6000608082019050613e8c6000830187613343565b613e996020830186613352565b613ea66040830185613e12565b8181036060830152613eb881846133f4565b905095945050505050565b6000606082019050613ed86000830186613352565b613ee56020830185613352565b613ef26040830184613e12565b949350505050565b6000604082019050613f0f6000830185613352565b613f1c6020830184613e12565b9392505050565b60006020820190508181036000830152613f3d8184613361565b905092915050565b6000602082019050613f5a60008301846133d6565b92915050565b6000602082019050613f7560008301846133e5565b92915050565b60006020820190508181036000830152613f958184613497565b905092915050565b60006020820190508181036000830152613fb68161358f565b9050919050565b60006020820190508181036000830152613fd6816135f5565b9050919050565b60006020820190508181036000830152613ff68161365b565b9050919050565b60006020820190508181036000830152614016816136c1565b9050919050565b6000602082019050818103600083015261403681613727565b9050919050565b6000602082019050818103600083015261405681613767565b9050919050565b60006020820190508181036000830152614076816137cd565b9050919050565b600060208201905081810360008301526140968161380d565b9050919050565b600060208201905081810360008301526140b681613873565b9050919050565b600060208201905081810360008301526140d6816138d9565b9050919050565b600060208201905081810360008301526140f68161393f565b9050919050565b60006020820190508181036000830152614116816139a5565b9050919050565b6000602082019050818103600083015261413681613a0b565b9050919050565b6000602082019050818103600083015261415681613a4b565b9050919050565b6000602082019050818103600083015261417681613ab1565b9050919050565b6000602082019050818103600083015261419681613af1565b9050919050565b600060208201905081810360008301526141b681613b57565b9050919050565b600060208201905081810360008301526141d681613bbd565b9050919050565b600060208201905081810360008301526141f681613c23565b9050919050565b6000602082019050818103600083015261421681613c89565b9050919050565b6000602082019050818103600083015261423681613cc9565b9050919050565b600060208201905081810360008301526142578184613d99565b905092915050565b60006020820190506142746000830184613e12565b92915050565b6000604051905081810181811067ffffffffffffffff8211171561429d57600080fd5b8060405250919050565b600067ffffffffffffffff8211156142be57600080fd5b601f19601f8301169050602081019050919050565b600067ffffffffffffffff8211156142ea57600080fd5b601f19601f8301169050602081019050919050565b6000819050602082019050919050565b60008190508160005260206000209050919050565b600081519050919050565b600081519050919050565b600081519050919050565b6000602082019050919050565b600082825260208201905092915050565b600082825260208201905092915050565b600081905092915050565b600082825260208201905092915050565b600082825260208201905092915050565b600081905092915050565b60006143b782614412565b9050919050565b60006143c982614412565b9050919050565b60008115159050919050565b6000819050919050565b60007fffffffff0000000000000000000000000000000000000000000000000000000082169050919050565b600073ffffffffffffffffffffffffffffffffffffffff82169050919050565b6000819050919050565b82818337600083830152505050565b60005b8381101561446957808201518184015260208101905061444e565b83811115614478576000848401525b50505050565b6000601f19601f8301169050919050565b614498816143ac565b81146144a357600080fd5b50565b6144af816143d0565b81146144ba57600080fd5b50565b6144c6816143dc565b81146144d157600080fd5b50565b6144dd816143e6565b81146144e857600080fd5b50565b6144f481614432565b81146144ff57600080fd5b5056fe4552433732313a207472616e7366657220746f206e6f6e20455243373231526563656976657220696d706c656d656e7465724552433732313a206f776e657220717565727920666f72206e6f6e6578697374656e7420746f6b656ea2646970667358221220a327914e3f2e89e3c0593e8ac4c8cf4fcc01263297a3d3b0b9c70fa7e8ea80e364736f6c634300060c0033",
  "immutableReferences": {},
  "source": "// SPDX-License-Identifier: MIT\r\npragma solidity >=0.4.22 <0.8.0;\r\npragma experimental ABIEncoderV2;\r\n\r\nimport \"@openzeppelin/contracts/token/ERC721/ERC721.sol\";\r\nimport \"@openzeppelin/contracts/access/Ownable.sol\";\r\nimport \"@openzeppelin/contracts/access/AccessControl.sol\";\r\n\r\n// import \"https://github.com/OpenZeppelin/openzeppelin-contracts/blob/master/contracts/token/ERC721/ERC721.sol\";\r\n// import \"https://github.com/OpenZeppelin/openzeppelin-contracts/blob/master/contracts/access/AccessControl.sol\";\r\n// import \"https://github.com/OpenZeppelin/openzeppelin-contracts/blob/master/contracts/access/Ownable.sol\";\r\n\r\ncontract PropertyPool is ERC721, Ownable, AccessControl {\r\n    bytes32 public constant MINTER_ROLE = keccak256(\"MINTER_ROLE\");\r\n    bytes32 public constant MINTER_ADMIN_ROLE = keccak256(\"MINTER_ADMIN_ROLE\");\r\n\r\n    struct Property {\r\n        string propertyId;\r\n        string propertyAddress;\r\n        uint256 propertyLength;\r\n        uint256 propertyWidth;\r\n    }\r\n\r\n    Property[] private properties;\r\n\r\n    constructor() public ERC721(\"PropertyPool\", \"PPL\") {\r\n        _setRoleAdmin(MINTER_ROLE, MINTER_ADMIN_ROLE);\r\n        _setupRole(MINTER_ADMIN_ROLE, msg.sender);\r\n\r\n        Property memory _property = Property(\"000\", \"India\", 0, 0);\r\n        properties.push(_property);\r\n        uint256 _tokenId = properties.length - 1;\r\n        _mint(msg.sender, _tokenId);\r\n    }\r\n\r\n    event PropertyMinted(address _owner, uint256 _tokenId);\r\n    event PropertyTransfered(address _from, address _to, uint256 _tokenId);\r\n\r\n    function addMinters(address minter) public onlyOwner {\r\n        grantRole(MINTER_ROLE, minter);\r\n    }\r\n\r\n    function removeMinters(address minter) public onlyOwner {\r\n        revokeRole(MINTER_ROLE, minter);\r\n    }\r\n\r\n    function mintProperty(\r\n        string memory _propertyId,\r\n        string memory _propertyAddress,\r\n        uint256 _propertyLength,\r\n        uint256 _propertyWidth,\r\n        address _owner\r\n    ) public {\r\n        require(hasRole(MINTER_ROLE, msg.sender));\r\n\r\n        Property memory _property = Property(\r\n            _propertyId,\r\n            _propertyAddress,\r\n            _propertyLength,\r\n            _propertyWidth\r\n        );\r\n        properties.push(_property);\r\n        uint256 _tokenId = properties.length - 1;\r\n\r\n        _mint(msg.sender, _tokenId);\r\n        transferProperty(msg.sender, _owner, _tokenId);\r\n        emit PropertyMinted(_owner, _tokenId);\r\n    }\r\n\r\n    function transferProperty(\r\n        address _from,\r\n        address _to,\r\n        uint256 _tokenId\r\n    ) public {\r\n        transferFrom(_from, _to, _tokenId);\r\n        emit PropertyTransfered(_from, _to, _tokenId);\r\n    }\r\n\r\n    function getPropertyFromId(uint256 id)\r\n        public\r\n        view\r\n        returns (Property memory)\r\n    {\r\n        return (properties[id]);\r\n    }\r\n\r\n    function getAllProperties() public view returns (Property[] memory) {\r\n        return properties;\r\n    }\r\n}\r\n",
  "sourcePath": "D:/Collab/property-pool/contracts/PropertyPool.sol",
  "compiler": {
    "name": "solc",
    "version": "0.6.12+commit.27d51765.Emscripten.clang"
  },
  "schemaVersion": "3.3.0",
  "updatedAt": "2020-11-17T06:38:13.998Z",
  "networkType": "ethereum",
  "devdoc": {
    "kind": "dev",
    "methods": {
      "approve(address,uint256)": {
        "details": "See {IERC721-approve}."
      },
      "balanceOf(address)": {
        "details": "See {IERC721-balanceOf}."
      },
      "baseURI()": {
        "details": "Returns the base URI set via {_setBaseURI}. This will be automatically added as a prefix in {tokenURI} to each token's URI, or to the token ID if no specific URI is set for that token ID."
      },
      "getApproved(uint256)": {
        "details": "See {IERC721-getApproved}."
      },
      "getRoleAdmin(bytes32)": {
        "details": "Returns the admin role that controls `role`. See {grantRole} and {revokeRole}. To change a role's admin, use {_setRoleAdmin}."
      },
      "getRoleMember(bytes32,uint256)": {
        "details": "Returns one of the accounts that have `role`. `index` must be a value between 0 and {getRoleMemberCount}, non-inclusive. Role bearers are not sorted in any particular way, and their ordering may change at any point. WARNING: When using {getRoleMember} and {getRoleMemberCount}, make sure you perform all queries on the same block. See the following https://forum.openzeppelin.com/t/iterating-over-elements-on-enumerableset-in-openzeppelin-contracts/2296[forum post] for more information."
      },
      "getRoleMemberCount(bytes32)": {
        "details": "Returns the number of accounts that have `role`. Can be used together with {getRoleMember} to enumerate all bearers of a role."
      },
      "grantRole(bytes32,address)": {
        "details": "Grants `role` to `account`. If `account` had not been already granted `role`, emits a {RoleGranted} event. Requirements: - the caller must have ``role``'s admin role."
      },
      "hasRole(bytes32,address)": {
        "details": "Returns `true` if `account` has been granted `role`."
      },
      "isApprovedForAll(address,address)": {
        "details": "See {IERC721-isApprovedForAll}."
      },
      "name()": {
        "details": "See {IERC721Metadata-name}."
      },
      "owner()": {
        "details": "Returns the address of the current owner."
      },
      "ownerOf(uint256)": {
        "details": "See {IERC721-ownerOf}."
      },
      "renounceOwnership()": {
        "details": "Leaves the contract without owner. It will not be possible to call `onlyOwner` functions anymore. Can only be called by the current owner. NOTE: Renouncing ownership will leave the contract without an owner, thereby removing any functionality that is only available to the owner."
      },
      "renounceRole(bytes32,address)": {
        "details": "Revokes `role` from the calling account. Roles are often managed via {grantRole} and {revokeRole}: this function's purpose is to provide a mechanism for accounts to lose their privileges if they are compromised (such as when a trusted device is misplaced). If the calling account had been granted `role`, emits a {RoleRevoked} event. Requirements: - the caller must be `account`."
      },
      "revokeRole(bytes32,address)": {
        "details": "Revokes `role` from `account`. If `account` had been granted `role`, emits a {RoleRevoked} event. Requirements: - the caller must have ``role``'s admin role."
      },
      "safeTransferFrom(address,address,uint256)": {
        "details": "See {IERC721-safeTransferFrom}."
      },
      "safeTransferFrom(address,address,uint256,bytes)": {
        "details": "See {IERC721-safeTransferFrom}."
      },
      "setApprovalForAll(address,bool)": {
        "details": "See {IERC721-setApprovalForAll}."
      },
      "supportsInterface(bytes4)": {
        "details": "See {IERC165-supportsInterface}. Time complexity O(1), guaranteed to always use less than 30 000 gas."
      },
      "symbol()": {
        "details": "See {IERC721Metadata-symbol}."
      },
      "tokenByIndex(uint256)": {
        "details": "See {IERC721Enumerable-tokenByIndex}."
      },
      "tokenOfOwnerByIndex(address,uint256)": {
        "details": "See {IERC721Enumerable-tokenOfOwnerByIndex}."
      },
      "tokenURI(uint256)": {
        "details": "See {IERC721Metadata-tokenURI}."
      },
      "totalSupply()": {
        "details": "See {IERC721Enumerable-totalSupply}."
      },
      "transferFrom(address,address,uint256)": {
        "details": "See {IERC721-transferFrom}."
      },
      "transferOwnership(address)": {
        "details": "Transfers ownership of the contract to a new account (`newOwner`). Can only be called by the current owner."
      }
    },
    "version": 1
  },
  "userdoc": {
    "kind": "user",
    "methods": {},
    "version": 1
  }
}